:100000000C942D010C945E010C945E010C945E0125
:100010000C945E010C945E010C945E010C945E01E4
:100020000C945E010C945E010C945E010C945E01D4
:100030000C945E010C945E010C945E010C945E01C4
:100040000C945E010C945E010C945E010C945E01B4
:100050000C945E010C945E010C945E010C94980566
:100060000C945E010C946C060C9442060C945E0198
:100070000C945E010C945E010C945E010C945E0184
:100080000C945E010C945E010C945E010C945E0174
:100090000C945E010C945E010C945E010C94A2061B
:1000A0000C945E010C945E010C945E010C945E0154
:1000B0000C945E010C945E010C945E010C945E0144
:1000C0000C945E010C945E010C945E010C945E0134
:1000D0000C945E010C945E010C940C060C94E205E9
:1000E0000C945E010C94E1020C947D020C94E104EA
:1000F0000C942E030C9403020C94D1040C94F10183
:100100000C949F020C9440020C94ED010C94500549
:100110000C9441020C9438020C9421050C940D02AD
:100120000C94FF010C94E3010C94C6070C94CE01CF
:100130000C9491020C943F020C94B7010C94DA01D8
:100140000C946E020C94DD010C94D6010C94BC014D
:100150000C94D2010C9409020C94F4040C94E70161
:100160000C94D2040C94FB010C94F50100002200C5
:10017000250028002B002E00310034000201000071
:10018000050108010B010505050507050808080814
:10019000020202020A0A080804040404010101011F
:1001A000010101010303030303030303040707071A
:1001B0000C0C0C0C0C0C0C0C0202020206060606BF
:1001C000060606060B0B0B0B0B0B0B0B010210208C
:1001D000200808102040102040800201020108047D
:1001E0000201010204081020408080402010080411
:1001F000020180040201804020100804020108046A
:1002000002010102040810204080010204081020AD
:10021000408000000A0B02090C0D0E0807030401C0
:1002200000000000000000000000000000000000CE
:10023000000000000000000000000000000012119B
:10024000100000000000000000000000000000009E
:100250000000000000000000C60711241FBECFEF01
:10026000D1E2DEBFCDBF00E00CBF12E0A0E0B2E003
:10027000ECE4F4E100E00BBF02C007900D92A23560
:10028000B107D9F724E0A2E5B2E001C01D92AB3579
:10029000B207E1F711E0CDE2D1E000E006C021971E
:1002A0000109802FFE010E940F0ACC32D10780E0A5
:1002B0000807A9F70E9425080C94240A0C94000052
:1002C000FC01A089B18982E08C93A485B5851C923C
:1002D000A685B78580E18C93108EA489B58986E0C8
:1002E0008C93A289B3898C9180618C93A289B38904
:1002F0008C9188608C93A289B3898C9180688C934F
:100300000288F389E02D80818F7D80830895282FD6
:1003100030E0F901EE5EFD4F9491F901E453FE4F98
:1003200044912A573E4FF9012491222309F435C004
:10033000992311F191509231F8F4E92FF0E08827D8
:10034000EB55FE4F8F4F0C940F0AD601DA01B7011F
:10035000CE01D201BC01DD01E301E701ED01F101B4
:10036000F501FB01FF01BC01030209020D028091AE
:1003700080008F7780938000E22FF0E0EE0FFF1F68
:10038000E459FE4FA591B4918FB7F894EC916111A7
:1003900048C040954E234C938FBF089580918000B4
:1003A0008F7DE8CF80918000877FE4CF84B58F7701
:1003B00084BDE2CF84B58F7DFBCF8091B0008F7775
:1003C0008093B000D9CF8091B0008F7DF9CF80911C
:1003D00090008F7780939000CFCF809190008F7D99
:1003E000F9CF80919000877FF5CF8091A0008F7723
:1003F0008093A000C1CF8091A0008F7DF9CF809124
:10040000A000877FF5CF809120018F778093200116
:10041000B3CF809120018F7DF9CF80912001877F1C
:10042000F5CF4E2BB8CF3FB7F8948091C102909191
:10043000C202A091C302B091C40226B5A89B05C018
:100440002F3F19F00196A11DB11D3FBFBA2FA92F53
:10045000982F8827BC01CD01620F711D811D911D50
:1004600042E0660F771F881F991F4A95D1F70895BC
:1004700080919A0290919B02891B990B089508958F
:100480000895AF92BF92CF92DF92EF92FF920F93B7
:100490001F93CF93DF936C017B018B01040F151F1A
:1004A000EB015E01AE18BF08C017D10759F0699182
:1004B000D601ED91FC910190F081E02DC6011995D6
:1004C000892B79F7C501DF91CF911F910F91FF9093
:1004D000EF90DF90CF90BF90AF900895FC01538DC7
:1004E000448D252F30E0842F90E0821B930B54170E
:1004F00010F0CF96089501970895FC01918D828D9B
:10050000981761F0A28DAE0FBF2FB11D5D968C9133
:10051000928D9F5F9F73928F90E008958FEF9FEF72
:100520000895FC01918D828D981731F0828DE80F2E
:10053000F11D858D90E008958FEF9FEF0895FC01E8
:10054000918D228D892F90E0805C9F4F821B9109B5
:100550008F739927089585E193E00E949F0221E01F
:10056000892B09F420E0822F089582EB93E00E940A
:100570009F0221E0892B09F420E0822F0895FC01DD
:10058000A48DA80FB92FB11DA35ABF4F2C91848DF4
:1005900090E001968F739927848FA689B7892C9351
:1005A000A089B1898C91837080648C93938D848DA4
:1005B000981306C00288F389E02D80818F7D8083A7
:1005C0000895EF92FF920F931F93CF93DF93EC0167
:1005D00081E0888F9B8D8C8D98131AC0E889F989EA
:1005E000808185FF15C09FB7F894EE89FF896083ED
:1005F000E889F98980818370806480839FBF81E06E
:1006000090E0DF91CF911F910F91FF90EF900895AF
:10061000F62E0B8D10E00F5F1F4F0F731127E02E8A
:100620008C8D8E110CC00FB607FCFACFE889F989C2
:10063000808185FFF5CFCE010E94BF02F1CFEB8D07
:10064000EC0FFD2FF11DE35AFF4FF0829FB7F89496
:100650000B8FEA89FB8980818062CFCFCF93DF93B4
:10066000EC01888D8823B9F0AA89BB89E889F989CA
:100670008C9185FD03C0808186FD0DC00FB607FCFF
:10068000F7CF8C9185FFF2CF808185FFEDCFCE0132
:100690000E94BF02E9CFDF91CF91089580E090E002
:1006A000892B29F00E94B50281110E94000080E090
:1006B00090E0892B49F080E090E0892B29F00E949E
:1006C000000081110E94000080E090E0892B49F039
:1006D00080E090E0892B29F00E94000081110E94A7
:1006E000000080E090E0892B29F00E94AB0281118C
:1006F0000C940000089520917302260F3327331FB6
:1007000021323105ECF42091EB02FC0190E080E015
:10071000243069F082E00895A09173022191AC0128
:100720004D5A5D4FA40FB52FB11D2C93019686171E
:1007300098F380917302680F6093730280E00895CC
:1007400081E008951092EB0281E08093EA0210921A
:10075000C50261E084E10E94870161E085E10E94B9
:100760008701E9EBF0E080818E7F808380818D7F3F
:10077000808388E48093B80085E48093BC0008956A
:10078000CF93DF9391E0909352028823B9F0C09108
:10079000B800D091BA008091BC008A7B8093BC00E5
:1007A00060E084E10E94870160E085E10E948701AA
:1007B0000E94A203D093BA00C093B800DF91CF91FA
:1007C00008958F929F92AF92BF92CF92DF92EF9255
:1007D000FF920F931F93CF93DF93D0911403D132E5
:1007E00008F0D7C0182FC09113030E9413026B01A9
:1007F0007C018091EB0281116BC082E08093EB025F
:100800001093EA028FEF8093E9021092E802D093EE
:10081000E702A3EFB2E0E7ECF2E080E0D81391C08A
:100820001092C6028091C602CC0FC82BC093C6029C
:100830008091C502813009F088C01092C5020E94E3
:1008400013026B017C018091C6028093BB008091F2
:10085000ED029091EE02A091EF02B091F002892B8F
:100860008A2B8B2BA1F00E9413020091ED021091B4
:10087000EE022091EF023091F0026C197D098E0991
:100880009F09061717072807390708F442C0809107
:10089000BC0083FDD8CF85EC8093BC000E9413027E
:1008A0006B017C018091EB02823009F450C0809191
:1008B000E9028F3F09F46FC08091E902803209F4A8
:1008C0006CC08091E902803309F469C084E026C0DD
:1008D0008091ED029091EE02A091EF02B091F002B2
:1008E000892B8A2B8B2B09F484CF0E9413028090D2
:1008F000ED029090EE02A090EF02B090F0026C1921
:100900007D098E099F0986169706A806B90608F084
:1009100070CF8091EC020E94C00385E01092F20239
:10092000109214031092F102DF91CF911F910F9159
:10093000FF90EF90DF90CF90BF90AF909F908F90FF
:1009400008959D9191938F5F69CF85EEA5CF80919A
:10095000ED029091EE02A091EF02B091F002892B8E
:100960008A2B8B2B09F49ECF0E9413020091ED027B
:100970001091EE022091EF023091F0026C197D0986
:100980008E099F09061717072807390708F08ACF2D
:10099000C0CF81E0C3CF80E0C1CF82E0BFCF83E092
:1009A000BDCF0895E0919B0280919A02E81730F440
:1009B000F0E0E456FD4F808190E008958FEF9FEFC7
:1009C000089590919B0280919A022FEF3FEF981724
:1009D00048F4E92FF0E0E456FD4F208130E09F5FBE
:1009E00090939B02C9010895CF92DF92EF92FF92FC
:1009F0000F931F93CF93DF937C01CB018A0120914A
:100A0000F102222389F0EB016B01C40ED51ECC1537
:100A1000DD0569F06991D701ED91FC910190F081BC
:100A2000E02DC7011995F3CF642F0E947B03C80105
:100A3000DF91CF911F910F91FF90EF90DF90CF90BA
:100A40000895CF93DF931F92CDB7DEB769832091CE
:100A5000F1022223F9F020911403203258F021E012
:100A600030E0FC013383228390E080E00F90DF913F
:100A7000CF9108958091F202E82FF0E0ED50FD4F04
:100A8000998190838F5F8093F2028093140381E0B9
:100A900090E0ECCF61E0CE0101960E947B03F7CF9E
:100AA00090E080E00895FC0101900020E9F7319783
:100AB000AF01481B590BBC0182EB93E00C9441023F
:100AC00085ED8093BC008091ED029091EE02A091A3
:100AD000EF02B091F0020796A11DB11D23E0B6957B
:100AE000A795979587952A95D1F72091BC0024FD6D
:100AF00003C01092EB0208954091ED025091EE0276
:100B00006091EF027091F002452B462B472B69F361
:100B10000097A105B10541F02AE22A95F1F700C03E
:100B20000197A109B109E1CF8091EC020C94C003B7
:100B30001F920F920FB60F9211242F933F938F9312
:100B40009F93AF93BF938091BD029091BE02A091FD
:100B5000BF02B091C0023091BC0223E0230F2D37B9
:100B600058F50196A11DB11D2093BC028093BD02D2
:100B70009093BE02A093BF02B093C0028091C102C5
:100B80009091C202A091C302B091C4020196A11D2E
:100B9000B11D8093C1029093C202A093C302B0938F
:100BA000C402BF91AF919F918F913F912F910F9070
:100BB0000FBE0F901F90189526E8230F0296A11DD7
:100BC000B11DD2CF1F920F920FB60F9211240BB608
:100BD0000F922F933F934F935F936F937F938F93D6
:100BE0009F93AF93BF93EF93FF9385E193E00E94B0
:100BF000BF02FF91EF91BF91AF919F918F917F9134
:100C00006F915F914F913F912F910F900BBE0F907D
:100C10000FBE0F901F9018951F920F920FB60F9254
:100C200011240BB60F922F938F939F93EF93FF9303
:100C3000E0912503F09126038081E0912B03F09150
:100C40002C0382FD1DC0908180912E038F5F8F73D6
:100C500020912F03821741F0E0912E03F0E0EB5E2C
:100C6000FC4F958F80932E03FF91EF919F918F9171
:100C70002F910F900BBE0F900FBE0F901F901895E5
:100C80008081F2CF1F920F920FB60F9211240BB6F4
:100C90000F922F933F934F935F936F937F938F9315
:100CA0009F93AF93BF93EF93FF9382EB93E00E94E8
:100CB000BF02FF91EF91BF91AF919F918F917F9173
:100CC0006F915F914F913F912F910F900BBE0F90BD
:100CD0000FBE0F901F9018951F920F920FB60F9294
:100CE00011240BB60F922F938F939F93EF93FF9343
:100CF000E091C203F091C3038081E091C803F091B9
:100D0000C90382FD1DC090818091CB038F5F8F73DB
:100D10002091CC03821741F0E091CB03F0E0EE5438
:100D2000FC4F958F8093CB03FF91EF919F918F9113
:100D30002F910F900BBE0F900FBE0F901F90189524
:100D40008081F2CF1F920F920FB60F9211240BB633
:100D50000F922F933F934F935F936F937F938F9354
:100D60009F93AF93BF93EF93FF938091B900887FD8
:100D7000803609F44DC008F040C0883209F4A9C09B
:100D800028F5803109F49DC0C8F4882309F4FBC01C
:100D9000883009F496C0FF91EF91BF91AF919F9178
:100DA0008F917F916F915F914F913F912F910F9014
:100DB0000BBE0F900FBE0F901F901895883109F44D
:100DC00088C0803241F78093E90214C0803409F46E
:100DD0009DC040F48033B9F38833E9F68093E9028B
:100DE00085ECB0C0803509F485C0883509F496C01B
:100DF000883489F60E946005CECF883909F48CC00A
:100E000038F5883729F050F4883611F0803719F614
:100E100083E08093EB021092950257C0883809F462
:100E20007BC0803919F0803809F0B5CF80919502E8
:100E3000803208F071C0E091950281E08E0F8093BE
:100E400095028091BB00F0E0EB58FD4F80833DC0E0
:100E5000803B39F0E0F4803A09F479C0883A09F02F
:100E60009ACF84E08093EB02109274021092730286
:100E7000E0919802F0919902199580917302811185
:100E80000FC081E0809373021092530209C0803C2E
:100E900009F4A6CF883C09F4A3CF883B09F07BCFA7
:100EA000E091740281E08E0F80937402F0E0ED5ABD
:100EB000FD4F80818093BB009091740280917302FA
:100EC00029C08091C6028093BB0085EC8093BC0052
:100ED00062CF9091E8028091E702981758F5E0916F
:100EE000E80281E08E0F8093E802F0E0E953FD4FC5
:100EF0008081E9CFE091E80281E08E0F8093E802E3
:100F00008091BB00F0E0E953FD4F80839091E802AF
:100F10008091E7029817C8F285E8D8CFE091E802FF
:100F200081E08E0F8093E8028091BB00F0E0E953EE
:100F3000FD4F80838091EA0281115CCF81E0809334
:100F4000C50284EA8093BC001092EB0224CF85ECAA
:100F50008093BC001092EB0280919502803230F4B5
:100F6000E0919502F0E0EB58FD4F10826091950200
:100F700070E0E0919602F091970285E792E0199572
:100F80001092950208CF1092E90234CFE5E1F3E028
:100F90001382128288EE93E0A0E0B0E08483958310
:100FA000A683B78329E032E03183208345E351E013
:100FB0005587448744E351E05787468740E351E033
:100FC000518B408B41E351E0538B428B42E351E024
:100FD000558B448B46E351E0578B468B118E128E16
:100FE000138E148EE2EBF3E01382128284839583D6
:100FF000A683B7833183208325EC30E035872487AF
:1010000024EC30E03787268720EC30E0318B208BD2
:1010100021EC30E0338B228B22EC30E0358B248BBB
:1010200026EC30E0378B268B118E128E138E148EA9
:10103000EFE4F4E01382128284839583A683B7835E
:101040008BE192E0918380830895CF93DF9300D06A
:1010500000D000D01F92CDB7DEB7789484B58260FF
:1010600084BD84B5816084BD85B5826085BD85B54C
:10107000816085BD80916E00816080936E001092CA
:101080008100809181008260809381008091810045
:1010900081608093810080918000816080938000D6
:1010A0008091B10084608093B1008091B000816034
:1010B0008093B00080919100826080939100809134
:1010C0009100816080939100809190008160809375
:1010D00090008091A10082608093A1008091A10086
:1010E00081608093A1008091A00081608093A00026
:1010F0008091210182608093210180912101816092
:101100008093210180912001816080932001809152
:101110007A00846080937A0080917A008260809364
:101120007A0080917A00816080937A0080917A00C1
:10113000806880937A001092C10082EB93E00E9455
:10114000600185E193E00E94600110929B02109281
:101150009A020E94A2038FE392E0909399028093F7
:10116000980280E492E090939702809396028CE03C
:101170008093B80085E0E0E0F2E0DE011696019091
:101180000D928A95E1F7CE0101966C0185E0F6019A
:1011900011928A95E9F701E00093F10210E51093AE
:1011A00013031092F2021092140360E08FE494E0B3
:1011B0000E94210560E08FE494E00E9421057E01F9
:1011C000F6E0EF0EF11C45E050E0B7018FE494E04B
:1011D0000E94F40481E00E94E1030093F102109365
:1011E00013031092F2021092140360E08FE494E073
:1011F0000E94210560E08FE494E00E94210580E0D8
:101200000E94E1030E9413024B015C018091EB02FA
:10121000811165C081E08093EB028093EA029FEF29
:101220009093E9021092E80294E09093E702809391
:10123000C6028091C602806A8093C6028091C50270
:10124000813009F0A3C01092C5020E9413024B0125
:101250005C018091C6028093BB008091ED02909169
:10126000EE02A091EF02B091F002892B8A2B8B2B1A
:10127000A1F00E9413020091ED021091EE02209164
:10128000EF023091F002681979098A099B09061763
:1012900017072807390708F443C08091BC0083FD75
:1012A000D8CF85EC8093BC000E9413024B015C01F7
:1012B0008091EB02813009F46BC08091E80215E067
:1012C000853010F41091E802E7ECF2E0ACE9B2E00E
:1012D00080E0811751F191919D938F5FFACF8091BA
:1012E000ED029091EE02A091EF02B091F002892BF5
:1012F0008A2B8B2B09F48ACF0E9413020091ED02F6
:101300001091EE022091EF023091F00268197909F4
:101310008A099B09061717072807390708F076CFAF
:101320008091EC020E94C00310E010929B02109387
:101330009A02560180919B02181751F08FE494E0B5
:101340000E94E104F50181935F01EE15FF0591F71D
:1013500081E392E00E94530581E492E00E945305EC
:1013600084E492E00E94530545E050E0B601C701D5
:101370000E94170A892B09F44FC089E292E00E946B
:10138000530581E492E00E94530536C085EE8ACF72
:101390008091ED029091EE02A091EF02B091F002E7
:1013A000892B8A2B8B2B09F483CF0E941302009187
:1013B000ED021091EE022091EF023091F0026819D7
:1013C00079098A099B09061717072807390708F0C2
:1013D0006FCFA6CF85E193E00E949F02892B51F049
:1013E00085E193E00E947D02682F82EB93E00E94EA
:1013F000E102F0CF0E944E0382EB93E00E949F0235
:10140000892B41F382EB93E00E947D02682F85E1F6
:1014100093E00E94E102F0CF8EE292E0B0CFEE0FB7
:10142000FF1F881F8BBF0790F691E02D1994FB01D9
:10143000DC0104C08D910190801921F4415050408D
:0C144000C8F7881B990B0895F894FFCFA3
:10144C004D3235363000000000E10241026E022EB2
:10145C00039F027D029102000000002105F404505C
:10146C0005D1043802E104D2044641494C004F4BEB
:10147C00004D656761323536302B207265616479B9
:10148C00000D0A004652414D20636865636B3A209B
:02149C0000004E
:00000001FF
